:020000040000FA
:020000001028C6
:06000A0082077E340C3475
:10001000B6349E34CC34DA34FA340E34FE34DE3462
:100020008316833081000030850086008312FF3004
:1000300085000130860001308100FE309100DE3005
:100040009200930094009500003096000C308C00D4
:10005000C4308D00F6308E00F6308F000108031D8D
:100060002E288C0F492806140C308C0096158D0F05
:100070004928C4308D0009308C028E0F4928F63093
:100080008E0022308C078F0F4928F7308F00033005
:100090008C02961D7328F6300E029400C4300D02B7
:1000A00092000030950093000230900012308400DE
:1000B0005B28143084000A3080020318612880070E
:1000C0006528840A800A84035B28900B5928123023
:1000D000840004309000000805208000840A900B02
:1000E0006B280030950000309600FF30850000300E
:1000F0000606FE3986060000000000000000000031
:100100000000111C1508911C1408111D1308911DE5
:1001100012080606FE3986068C1B0610110885009B
:0A012000910D1114111E11102E286C
:02400E00F13F80
:00000001FF
